:100000000C942A000C9447000C9447000C94470071
:100010000C9447000C9447000C9447000C94470044
:100020000C9447000C9447000C9447000C94470034
:100030000C9447000C9447000C9447000C94470024
:100040000C9447000C9447000C9447000C94470014
:100050000C94470011241FBECFE5D8E0DEBFCDBF12
:1000600010E0A0E6B0E0E0EAFCE002C005900D92EE
:10007000AC36B107D9F710E0ACE6B0E001C01D9294
:10008000AC36B107E1F70E94AC030C944E060C9419
:10009000000040E00E94580008950E94C7010895A2
:1000A00041E00E94B202089540E00E94B202089529
:1000B000843409F471C0853448F4823499F183346E
:1000C00008F04DC0813409F083C00FC0823651F171
:1000D000833620F4813609F07BC007C0833609F4EB
:1000E0003EC0843609F074C057C0413069F42AB369
:1000F00081E090E0AC0102C0440F551F6A95E2F721
:10010000BA01622B6ABB08952AB381E090E0AC018A
:1001100002C0440F551F6A95E2F7BA016095622349
:100120006ABB0895413069F427B381E090E0AC01E7
:1001300002C0440F551F6A95E2F7BA01622B67BBF4
:10014000089527B381E090E0AC0102C0440F551F31
:100150006A95E2F7BA016095622367BB0895413062
:1001600069F424B381E090E0AC0102C0440F551F54
:100170006A95E2F7BA01622B64BB089524B381E06B
:1001800090E0AC0102C0440F551F6A95E2F7BA0136
:100190006095622364BB0895413069F421B381E026
:1001A00090E0AC0102C0440F551F6A95E2F7BA0116
:1001B000622B61BB089521B381E090E0AC0102C0E5
:1001C000440F551F6A95E2F7BA016095622361BB3F
:1001D0000895843409F471C0853448F4823499F167
:1001E000833408F04DC0813409F083C00FC08236DB
:1001F00051F1833620F4813609F07BC007C0833685
:1002000009F43EC0843609F074C057C0413069F427
:100210002BB381E090E0AC0102C0440F551F6A95FA
:10022000E2F7BA01622B6BBB08952BB381E090E03B
:10023000AC0102C0440F551F6A95E2F7BA01609500
:1002400062236BBB0895413069F428B381E090E0EC
:10025000AC0102C0440F551F6A95E2F7BA01622B48
:1002600068BB089528B381E090E0AC0102C0440F60
:10027000551F6A95E2F7BA016095622368BB08953D
:10028000413069F425B381E090E0AC0102C0440F35
:10029000551F6A95E2F7BA01622B65BB089525B335
:1002A00081E090E0AC0102C0440F551F6A95E2F76F
:1002B000BA016095622365BB0895413069F422B3A9
:1002C00081E090E0AC0102C0440F551F6A95E2F74F
:1002D000BA01622B62BB089522B381E090E0AC01C9
:1002E00002C0440F551F6A95E2F7BA016095622378
:1002F00062BB0895843409F43DC0853440F48234EF
:10030000F9F0833450F5813409F040C00CC08236D6
:10031000B9F0833618F48136C9F505C08336E9F0A3
:100320008436A1F527C02BB381E090E0AC0102C078
:10033000440F551F6A95E2F7BA0162276BBB089517
:1003400028B381E090E0AC0102C0440F551F6A95CC
:10035000E2F7BA01622768BB089525B381E090E017
:10036000AC0102C0440F551F6A95E2F7BA0162273B
:1003700065BB089522B381E090E0AC0102C0440F58
:10038000551F6A95E2F7BA01622762BB089584346B
:1003900009F44EC0853440F4823431F18334B0F531
:1003A000813409F057C00EC08236F1F0833620F454
:1003B000813609F04FC006C0833641F1843609F01A
:1003C00049C036C029B381E090E0062E02C0880FF4
:1003D000991F0A94E2F730E08223932302C0959597
:1003E00087956A95E2F7089526B381E090E0062E9E
:1003F00002C0880F991F0A94E2F730E0822393230A
:1004000002C0959587956A95E2F7089523B381E038
:1004100090E0062E02C0880F991F0A94E2F730E0A0
:100420008223932302C0959587956A95E2F70895F4
:1004300020B381E090E0062E02C0880F991F0A9435
:10044000E2F730E08223932302C0959587956A9561
:10045000E2F7089580E008958434D9F0853438F4C3
:10046000823499F0833498F48134A1F40CC082363C
:1004700061F0833618F4813669F405C0833639F0AB
:10048000843641F406C06ABB089567BB089564BB17
:10049000089561BB08958434D9F0853438F48234EA
:1004A00099F0833498F48134A1F40CC0823661F061
:1004B000833618F4813669F405C0833639F0843602
:1004C00041F406C06BBB089568BB089565BB0895F1
:1004D00062BB08958434D9F0853438F4823499F0BD
:1004E000833498F48134A9F40CC0823661F08336E9
:1004F00018F4813671F405C0833639F0843649F436
:1005000006C089B3089586B3089583B3089580B370
:10051000089580E00895843409F1853438F48234F4
:10052000A9F08334B8F48134E1F40CC0823671F060
:10053000833618F48136A9F405C0833659F0843621
:1005400081F40CC08BB380958BBB089588B38095E4
:1005500088BB089585B3809585BB089582B3809547
:1005600082BB0895843409F471C0853448F4823420
:1005700099F1833408F04DC0813409F083C00FC075
:10058000823651F1833620F4813609F07BC007C0F2
:10059000833609F43EC0843609F074C057C0413038
:1005A00069F42BB381E090E0AC0102C0440F551F09
:1005B0006A95E2F7BA01622B6BBB08952BB381E019
:1005C00090E0AC0102C0440F551F6A95E2F7BA01F2
:1005D000609562236BBB0895413069F428B381E0D4
:1005E00090E0AC0102C0440F551F6A95E2F7BA01D2
:1005F000622B68BB089528B381E090E0AC0102C093
:10060000440F551F6A95E2F7BA016095622368BBF3
:100610000895413069F425B381E090E0AC0102C057
:10062000440F551F6A95E2F7BA01622B65BB089526
:1006300025B381E090E0AC0102C0440F551F6A95DC
:10064000E2F7BA016095622365BB0895413069F411
:1006500022B381E090E0AC0102C0440F551F6A95BF
:10066000E2F7BA01622B62BB089522B381E090E009
:10067000AC0102C0440F551F6A95E2F7BA016095BC
:10068000622362BB08956F70843451F1853438F46D
:100690008234C1F08334E8F4813441F50CC08236F1
:1006A00089F0833618F4813609F505C0833689F060
:1006B0008436E1F415C08BB3807F8BBB8BB3682B82
:1006C0006BBB089588B3807F88BB88B3682B68BBF9
:1006D000089585B3807F85BB85B3682B65BB08957E
:1006E00082B3807F82BB82B3682B62BB0895629520
:1006F000607F843451F1853438F48234C1F083341E
:10070000E8F4813441F50CC0823689F0833618F460
:10071000813609F505C0833689F08436E1F415C0C9
:100720008BB38F708BBB8BB3682B6BBB089588B377
:100730008F7088BB88B3682B68BB089585B38F70B2
:1007400085BB85B3682B65BB089582B38F7082BB70
:1007500082B3682B62BB08950E94960582E463E031
:100760000E94500082E464E00E94500082E465E050
:100770000E94500082E466E00E94500082E467E03C
:100780000E94500080E690E00E940C0681E06CE040
:100790000E94250683E690E00E940C0682E061E05C
:1007A0000E94250686E690E00E940C0682E06CE03E
:1007B0000E94250689E690E00E940C06FF2400E0D6
:1007C00010E0D0E00F2EF4E6DF2EF02D0F2EFAE031
:1007D000EF2EF02D0F2EF0E6AF2EF0E0BF2EF02D15
:1007E0000F2EF3E68F2EF0E09F2EF02D0F2EF6E663
:1007F0006F2EF0E07F2EF02D0F2EF9E64F2EF0E059
:100800005F2EF02DCC2481E063E00E942506DA30D3
:1008100028F48D2F805D0E94F50523C0D43668F43E
:100820008D2F6E2D0E944206C92F805D0E94F50516
:100830008C2F805D0E94F50514C08D2F6D2D0E94B8
:100840004206C92F805D0E94F5058C2F6E2D0E94F7
:100850004206C92F805D0E94F5058C2F805D0E94A5
:10086000F50581E06EE00E9425061A3028F4812FFC
:10087000805D0E94F50523C0143668F4812F6E2D2B
:100880000E944206C92F805D0E94F5058C2F805D75
:100890000E94F50514C0812F6D2D0E944206C92FBC
:1008A000805D0E94F5058C2F6E2D0E944206C92F97
:1008B000805D0E94F5058C2F805D0E94F50582E029
:1008C00063E00E9425060A3028F4802F805D0E9494
:1008D000F50523C0043668F4802F6E2D0E94420671
:1008E000C92F805D0E94F5058C2F805D0E94F50563
:1008F00014C0802F6D2D0E944206C92F805D0E947A
:10090000F5058C2F6E2D0E944206C92F805D0E9436
:10091000F5058C2F805D0E94F50582E06EE00E9457
:10092000250689E08F1528F08F2D805D0E94F50542
:1009300024C093E69F1568F08F2D6E2D0E9442060D
:10094000C92F805D0E94F5058C2F805D0E94F50502
:1009500014C08F2D6D2D0E944206C92F805D0E940C
:10096000F5058C2F6E2D0E944206C92F805D0E94D6
:10097000F5058C2F805D0E94F50582E463E00E94FE
:100980004D008823A9F48FE39CE90197F1F700C09B
:10099000000082E463E00E944D00882309F033CF19
:1009A000DF5F82E463E00E944D008823D1F32BCF08
:1009B00082E464E00E944D008823A9F48FE39CE95F
:1009C0000197F1F700C0000082E464E00E944D004E
:1009D000882309F018CF1F5F82E464E00E944D0075
:1009E0008823D1F310CF82E465E00E944D00882374
:1009F000A9F48FE39CE90197F1F700C0000082E4BD
:100A000065E00E944D00882309F0FDCE0F5F82E46F
:100A100065E00E944D008823D1F3F5CE82E466E0C4
:100A20000E944D008823A9F48FE39CE90197F1F718
:100A300000C0000082E466E00E944D00882309F0B7
:100A4000E2CEF39482E466E00E944D008823D1F365
:100A5000DACE82E467E00E944D00882309F0D3CE0D
:100A60008FE39CE90197F1F700C0000082E467E0A2
:100A70000E944D00882309F0C6CE0E941B06C501C6
:100A80000E940C0681E06CE00E942506C4010E94D1
:100A90000C0682E061E00E942506C3010E940C065C
:100AA00082E06CE00E942506C2010E940C0682E4EE
:100AB00067E00E944D008823D1F3FC2C0C2D1C2DE7
:100AC000DC2DA1CE82E460E041E00E94E9008FE9E4
:100AD0009FE00197F1F700C0000082E460E040E091
:100AE0000E94E9008FE99FE00197F1F700C0000044
:100AF0000895CF93C82F82E461E040E00E94E900AE
:100B00006C2F62956F7081E40E9477030E946205EA
:100B100081E46C2F0E9477030E9462058FEC97E0BE
:100B20000197F1F700C00000CF9108958FEF91EE8B
:100B3000A4E081509040A040E1F700C0000081E4B3
:100B400064E041E00E94580081E465E041E00E94D9
:100B5000580081E466E041E00E94580081E467E0CB
:100B600041E00E94580082E460E041E00E945800A9
:100B700082E461E041E00E94580082E462E041E0EA
:100B80000E94580082E462E040E00E94E90082E0B6
:100B90000E947905AFE1BEE41197F1F700C00000B3
:100BA00088E20E9479058FEC97E00197F1F700C089
:100BB00000008CE00E947905AFECB7E01197F1F7E7
:100BC00000C0000081E00E9479058FE19EE401975A
:100BD000F1F700C0000086E00E947905AFECB7E0B5
:100BE0001197F1F700C000000895CF93C82F82E459
:100BF00061E041E00E94E9006C2F62956F7081E432
:100C00000E9477030E94620581E46C2F0E947703A3
:100C10000E946205CF910895CF93DF93EC01888104
:100C2000882331F021960E94F50589918823D9F710
:100C3000DF91CF91089581E00E9479058FE19EE4D4
:100C40000197F1F700C000000895982F915092305D
:100C500068F4613158F4662349F0813019F4862F25
:100C6000815802C0862F81540E94790508958034EE
:100C700020F080E80E947905089580648F770E94B3
:100C800079050895991B79E004C0991F961708F01B
:100C9000961B881F7A95C9F780950895F894FFCF21
:0C0CA000413D00423D00433D00443D004A
:00000001FF
